:1000000025C03FC03EC03DC03CC03BC03AC039C027
:1000100038C037C036C035C034C033C032C031C03C
:1000200030C02FC02EC05FC05CC05FC060C079C050
:1000300060C061C062C063C074C063C064C065C09A
:1000400066C06FC066C067C068C069C011241FBEAB
:10005000CFE5D4E0DEBFCDBF10E0A0E6B0E0E4E342
:10006000F0E102C005900D92AE3AB107D9F711E068
:10007000AEEAB0E001C01D92A832B107E1F732D577
:10008000D7C7BECF8FE081BB8FEF82BBB898C09A35
:1000900008953EEF61E040E050E032BB962F20E152
:1000A000762F7C5F80B3822389F0220F9F5F9717A2
:1000B000C9F7C09AB09B0AC0330F31604F5F5F4FE2
:1000C0004430510511F06B5FE8CF90E0892F08951F
:1000D00090E0FC013297E331F10518F5ED5EFF4F3A
:1000E000099489E308958FE2089588E3089587E3EA
:1000F00008958AE2089586E3089585E3089584E3E8
:1001000008958DE2089583E3089582E3089581E3DD
:1001100008958BE2089589E2089588E2089580E3C6
:10012000089580E0089580E061E09CD580E690E04D
:100130008DD58091D0009091D10088D5089582E02E
:1001400060E090D587E690E081D584E061E08AD5D3
:1001500084E790E07BD508950F931F93CF93DF93AF
:1001600080E060E07FD502EF10E0C0E0D0E008C0A2
:10017000F801819191918F0169D58CE761D5219624
:100180008091120190911301C817D9078CF3DF9168
:10019000CF911F910F910895CF92DF92EF92FF922E
:1001A0000F931F93DF93CF93CDB7DEB72F970FB683
:1001B000F894DEBF0FBECDBFDE011196EAE8F0E095
:1001C0008FE001900D928150E1F782E060E04AD526
:1001D0008DE790E03BD588EB9BE029E130E0F90129
:1001E0003197F1F70197D9F781E061E03BD58E01B6
:1001F0000F5F1F4F9CE7C92E92E9D92E8FE0E82EA2
:10020000F12CEC0EFD1EF80181918F0119D5C6016C
:100210000197F1F70E151F05B1F780EE9EE229E177
:1002200030E0F9013197F1F70197D9F72F960FB622
:10023000F894DEBF0FBECDBFCF91DF911F910F911C
:10024000FF90EF90DF90CF900895EF92FF920F9381
:100250001F93F82EE92E809112019091130140977F
:10026000FCF4EF2DFE2DDF010D900020E9F7CD010C
:100270008E1B9F0B69D5182F092F6F2D7E2D9AD6B7
:100280008091120190911301FC01EE0FFF1FEE50BF
:10029000FF4F108301830196909313018093120105
:1002A0001F910F91FF90EF900895AF92BF92CF9260
:1002B000DF92EF92FF920F931F93DF93CF93CDB70F
:1002C000DEB760970FB6F894DEBF0FBECDBFEE2449
:1002D000FF245E010894A11CB11C6FC0F701EE0F52
:1002E000FF1FE255FF4F00811181C80169E970E0ED
:1002F00058D6009791F0C8016BE970E052D600978C
:1003000061F0C8016DE970E04CD6009731F0C8018A
:100310006FE970E046D6009711F4C8014AC0C801E1
:1003200061EA70E03ED6009709F444C0C501B80107
:1003300041D667010894C11CD11C7601EE0CFF1C4C
:100340008EEA90E0E80EF91E06C0C501B8011ED67F
:100350000894C11CD11CF701008111810115110500
:1003600019F1C80169E970E01CD60097E9F0C801ED
:100370006BE970E016D60097B9F0C8016DE970E03E
:1003800010D6009789F0C8016FE970E00AD600978F
:1003900059F0C80161EA70E004D69C0182E090E067
:1003A000E80EF91E232B89F676010894E108F1087E
:1003B000C5014BDF0894E11CF11C8091CE009091A7
:1003C000CF00E816F9060CF489CF60960FB6F894C2
:1003D000DEBF0FBECDBFCF91DF911F910F91FF9078
:1003E000EF90DF90CF90BF90AF900895EF92FF9283
:1003F0000F931F93F82EE92E8091F0009091F10059
:100400004097FCF4EF2DFE2DDF010D900020E9F761
:10041000CD018E1B9F0B98D4182F092F6F2D7E2D89
:10042000C9D58091F0009091F100FC01EE0FFF1F03
:10043000E053FF4F1083018301969093F100809366
:10044000F0001F910F91FF90EF9008951F93182FC8
:100450008091CE009091CF0040970CF582E090E023
:1004600073D4FC01108311828091CE009091CF0053
:10047000DC01AA0FBB1FA255BF4FED93FC93019661
:100480009093CF008093CE00812FDAD388EB9BE04E
:1004900029E130E0F9013197F1F70197D9F71F9180
:1004A00008950F931F93CF93DF9302EF10E0C0E006
:1004B000D0E009C0F80180819181F3D4F801119254
:1004C00011928F0121968091120190911301C8170A
:1004D000D90784F31092130110921201DF91CF918A
:1004E0001F910F910895E091F000F091F1001E1618
:1004F0001F061CF53197F093F100E093F000EE0F2A
:10050000FF1FE053FF4F6081718184E191E052D57C
:10051000E091F000F091F100EE0FFF1FE053FF4F6C
:1005200080819181BED4E091F000F091F100EE0F56
:10053000FF1FE053FF4F1182108284E191E0089584
:100540006F927F928F929F92AF92BF92CF92DF92E3
:10055000EF92FF920F931F93DF93CF93CDB7DEB748
:10056000E0970FB6F894DEBF0FBECDBF82EF882EA6
:1005700080E0982EAA24BB2401E1C02ED12CCC0E01
:10058000DD1E11E2E12EF12CEC0EFD1E3E01089461
:10059000611C711C6FC0F40100811181C80169E9FF
:1005A00070E0FFD4009781F49EDFBC01C60102D544
:1005B0009ADFBC01C701FED4C601CBD48C01C701B0
:1005C000C8D4800F911F48C0C8016BE970E0E9D41E
:1005D000009781F488DFBC01C601ECD484DFBC0144
:1005E000C701E8D4C601B5D48C01C701B2D4801BC1
:1005F000910B32C0C8016DE970E0D3D40097B1F41B
:1006000072DFBC01C601D6D46EDFBC01C701D2D4F3
:10061000C6019FD48C01C7019CD49C01209FC001BE
:10062000219F900D309F900D112416C0C8016FE9D5
:1006300070E0B7D40097A9F456DFBC01C601BAD464
:1006400052DFBC01C701B6D4C60183D48C01C701F7
:1006500080D4B80152D3CB01B3014AE050E0B1D409
:1006600001C0C801C3DE0894A11CB11C82E090E067
:10067000880E991E8091120190911301A816B90657
:100680000CF489CFE0960FB6F894DEBF0FBECDBF55
:10069000CF91DF911F910F91FF90EF90DF90CF905E
:1006A000BF90AF909F908F907F906F900895AF9282
:1006B000BF92CF92DF92EF92FF920F931F93DF933F
:1006C000CF93CDB7DEB760970FB6F894DEBF0FBEFD
:1006D000CDBFCC24DD245E010894A11CB11C6BC1EC
:1006E000F601EE0FFF1FE255FF4FE080F180C701DA
:1006F00069E970E056D4009741F5E091F000F0917F
:10070000F100309709F474C0EE0FFF1FE253FF4F62
:100710008081918163EA70E044D4009719F468C045
:10072000E2DE93DDE091F000F091F100309709F402
:10073000CEC0EE0FFF1FE253FF4F8081918163EA2D
:1007400070E02FD4009761F7C2C0C7016BE970E079
:1007500028D4009741F5E091F000F091F100309736
:1007600009F446C0EE0FFF1FE253FF4F80819181D5
:1007700063EA70E016D4009719F43AC0B4DE65DD80
:10078000E091F000F091F100309709F4A0C0EE0F75
:10079000FF1FE253FF4F8081918163EA70E001D433
:1007A000009761F794C0C7016DE970E0FAD3009734
:1007B00009F045C0E091F000F091F1003097C1F0F0
:1007C000EE0FFF1FE253FF4F00811181C80163EA62
:1007D00070E0E7D3009761F0C80169E970E0E1D308
:1007E000009731F0C8016BE970E0DBD3009729F482
:1007F000C701FCDDDDC077DE28DDE091F000F0917F
:10080000F100309709F463C0EE0FFF1FE253FF4F72
:1008100000811181C80163EA70E0C3D3009709F435
:1008200056C0C80169E970E0BCD3009709F04FC019
:10083000C8016BE970E0B5D30097E9F248C0C70181
:100840006FE970E0AED3009709F049C0E091F00085
:10085000F091F100309761F2EE0FFF1FE253FF4F6E
:1008600000811181C80163EA70E09BD3009709F40D
:10087000BFCFC80169E970E094D3009709F4B8CFFD
:10088000C8016BE970E08DD3009719F4B1CF2BDE6E
:10089000DCDCE091F000F091F1003097C1F0EE0F58
:1008A000FF1FE253FF4F00811181C80163EA70E02E
:1008B00078D3009761F0C80169E970E072D30097BE
:1008C00031F4C8016BE970E06CD3009701F3F601D5
:1008D000EE0FFF1FE255FF4F808191818ACFC70144
:1008E00063EA70E05ED3009709F482CFC70165EA3E
:1008F00070E057D3009719F013C0F5DDA6DCE09146
:10090000F000F091F100EE0FFF1FE253FF4F8081E6
:10091000918163EA70E045D3009779F7E4DD48C040
:10092000C501B70147D30894C11CD11C7601EE0C58
:10093000FF1C8EEA90E0E80EF91E06C0C501B80162
:1009400025D30894C11CD11CF70100811181011528
:10095000110549F1C80169E970E023D3009719F145
:10096000C8016BE970E01DD30097E9F0C8016DE99B
:1009700070E017D30097B9F0C8016FE970E011D3A8
:10098000009789F0C80163EA70E00BD3009759F033
:10099000C80165EA70E005D39C0182E090E0E80EB2
:1009A000F91E232B59F60894C108D108C5014DDC66
:1009B0000894C11CD11C8091CE009091CF00C81624
:1009C000D9060CF48DCE02C08EDD3FDC8091F000A4
:1009D0009091F10018161906BCF360960FB6F894C2
:1009E000DEBF0FBECDBFCF91DF911F910F91FF9062
:1009F000EF90DF90CF90BF90AF9008950F931F932B
:100A0000CF93DF9300ED10E0C0E0D0E009C0F80123
:100A10008081918146D2F801119211928F01219625
:100A20008091F0009091F100C817D90784F31092DB
:100A3000F1001092F000DF91CF911F910F91089576
:100A4000E091CE00F091CF001E161F0644F53197BD
:100A5000F093CF00E093CE00EE0FFF1FE255FF4F63
:100A6000808191811ED28091CE009091CF00FC01B7
:100A7000EE0FFF1FE255FF4F1182108260E0F2D0AF
:100A800080E2DED08091CE0060E0ECD088EB9BE08D
:100A900029E130E0F9013197F1F70197D9F708958D
:100AA0000F931F93CF93DF930EEA10E0C0E0D0E0E6
:100AB00009C0F80180819181F4D1F801119211925D
:100AC0008F0121968091CE009091CF00C817D90751
:100AD00084F31092CF001092CE00DF91CF911F913E
:100AE0000F9108950F931F93CF93DF93D2D0CADA5B
:100AF00053DBC1D024DBCDDA8823E1F3813029F444
:100B000000E010E0C1E0D0E006C0863099F701E0D7
:100B100010E0C0E0D0E0AFD0CD2BC1F0BADA88232E
:100B2000E9F38130D9F38630C9F38B3029F0803175
:100B300029F0CEDA8BDCF2CF83DFF0CFB8DD00DD39
:100B40009AD00ADBF0DAA5DA8B30D9F7012B19F14C
:100B5000A0DA182F8823E1F38130A1F0863091F0DC
:100B60008B3071F0803171F0823161F0833129F086
:100B7000AFDA6CDC1B3021F005C08CE767DCE8CF16
:100B80005FDFE6CF103121F790DBDADC74D0CBDA0F
:100B900080DA8B30E1F76FD083DF30DF82DCAACFE1
:100BA00080FF02C0AA9A01C0AA9881FF02C0AB9A36
:100BB00001C0AB9882FF02C0AC9A01C0AC9883FF21
:100BC00002C0AD9A0895AD98089583B390E09695CC
:100BD00087959695879581709B9982609C99846092
:100BE0009D99886008951F93A298A398A498A598AA
:100BF000A89AA99AEADF182F1295107FA998A99AA6
:100C0000E4DFA998812B1F910895C298ECDF089525
:100C10001F93182FA29AA39AA49AA59AA898A99A62
:100C200082958F70BDDFA998A99A812FB9DFA99805
:100C3000ECDF87FDFDCF1F910895C298E9DF08958D
:100C4000C29AE6DF0895C29ACEDF0895CF93DF936C
:100C5000EC0102C02196F4DF88818823D9F7DF9167
:100C6000CF9108956295660F660F607C680F862F9E
:100C70008068E3DF089581E0E0DF84EF91E0019791
:100C8000F1F7089582E0D9DF84EF91E00197F1F761
:100C900008951F93CF93DF93A29AA39AA49AA59A3B
:100CA000A19ABA9AA09A86EA9EE00197F1F7C298B3
:100CB000A998A89810E0C2EED4E0A99A83E070DF6A
:100CC000A998CE010197F1F71F5F1330B1F7A99AE8
:100CD00082E066DFA9988AEF90E00197F1F788E259
:100CE000ACDF88E0AADF81E0A8DF86E0A6DF8CE049
:100CF000A4DFDF91CF911F91089597FB092E07265E
:100D00000AD077FD04D00CD006D000201AF47095DC
:100D100061957F4F0895F6F7909581959F4F0895BF
:100D2000AA1BBB1B51E107C0AA1FBB1FA617B70711
:100D300010F0A61BB70B881F991F5A95A9F780952D
:100D40009095BC01CD010895CF93DF93BC01823013
:100D5000910510F462E070E0A0912601B0912701A6
:100D6000ED01E0E0F0E040E050E021C088819981B1
:100D70008617970769F48A819B81309719F09383CE
:100D8000828304C09093270180932601FE0134C022
:100D90006817790738F44115510519F0841795073C
:100DA00008F4AC01FE018A819B819C01E901209736
:100DB000E9F641155105A9F1CA01861B970B049765
:100DC00008F4BA01E0E0F0E02AC08D919C911197FF
:100DD00084179507F9F46417750781F412968D91BD
:100DE0009C911397309719F09383828304C090935A
:100DF000270180932601FD0132964FC0CA01861B50
:100E0000970BFD01E80FF91F6193719302978D9382
:100E10009C9343C0FD01828193819C01D90110976D
:100E2000A1F68091240190912501892B41F48091B4
:100E3000A9009091AA0090932501809324014091EC
:100E4000AB005091AC004115510541F44DB75EB770
:100E50008091A7009091A800481B590B2091240174
:100E60003091250124173507B0F4CA01821B930B7A
:100E70008617970780F0AB014E5F5F4F8417950789
:100E800050F0420F531F5093250140932401F90164
:100E90006193719302C0E0E0F0E0CF01DF91CF9168
:100EA0000895CF93DF93009709F450C0EC01229787
:100EB0001B821A82A0912601B0912701109709F197
:100EC00040E050E0AC17BD0708F1BB83AA83FE01E8
:100ED00021913191E20FF31FAE17BF0779F48D9185
:100EE0009C911197280F391F2E5F3F4F398328831C
:100EF00012968D919C9113979B838A83411551057E
:100F000071F4D0932701C093260120C012968D91D1
:100F10009C911397AD01009711F0DC01D3CFFA013A
:100F2000D383C28321913191E20FF31FCE17DF07E4
:100F300069F488819981280F391F2E5F3F4FFA018C
:100F4000318320838A819B8193838283DF91CF9138
:100F50000895FC0188279927E89421912032E9F32C
:100F6000293010F02E30C8F32B3239F02D3231F405
:100F7000689403C045D0820F911D219120532A30DF
:100F8000C8F31EF4909581959F4F0895FB01DC01F5
:100F90000D900020E9F7119701900D920020E1F7E4
:100FA0000895FB01DC018D91019080190110D9F3A6
:100FB000990B0895FB01DC0101900D920020E1F7EF
:100FC0000895FB019F01E8944230BCF04532ACF437
:100FD0004A3029F497FB1EF4909581959F4F642F1A
:100FE00077279EDE805D8A330CF0895D8193CB018B
:100FF0000097A9F716F45DE251931082C90108C069
:101000007AE0979F902D879F802D910D1124089550
:10101000DC01FC01672F71917723E1F7329704C05F
:101020007C916D9370836291AE17BF07C8F30895EA
:04103000F894FFCF62
:1010340057594E494B20005759424945525A20545A
:10104400525942004B4C41532F4F4E50004461774C
:101054006964204D79736C616B004B414C4B554C6A
:1010640041544F52204F4E50002B002D002A002F88
:0E107400007C00280029002000280100000058
:00000001FF
